{
  "contractName": "DiceLimit",
  "abi": [
    {
      "inputs": [],
      "stateMutability": "nonpayable",
      "type": "constructor"
    },
    {
      "anonymous": false,
      "inputs": [
        {
          "indexed": true,
          "internalType": "uint256",
          "name": "block",
          "type": "uint256"
        },
        {
          "indexed": false,
          "internalType": "uint256",
          "name": "feeAmount",
          "type": "uint256"
        }
      ],
      "name": "FeeAmountUpdated",
      "type": "event"
    },
    {
      "anonymous": false,
      "inputs": [
        {
          "indexed": true,
          "internalType": "uint256",
          "name": "block",
          "type": "uint256"
        },
        {
          "indexed": false,
          "internalType": "uint256",
          "name": "maxBankerAmount",
          "type": "uint256"
        }
      ],
      "name": "MaxBankerAmountUpdated",
      "type": "event"
    },
    {
      "anonymous": false,
      "inputs": [
        {
          "indexed": true,
          "internalType": "uint256",
          "name": "block",
          "type": "uint256"
        },
        {
          "indexed": false,
          "internalType": "uint256",
          "name": "maxBetRatio",
          "type": "uint256"
        }
      ],
      "name": "MaxBetRatioUpdated",
      "type": "event"
    },
    {
      "anonymous": false,
      "inputs": [
        {
          "indexed": true,
          "internalType": "uint256",
          "name": "block",
          "type": "uint256"
        },
        {
          "indexed": false,
          "internalType": "uint256",
          "name": "maxExposureRatio",
          "type": "uint256"
        }
      ],
      "name": "MaxExposureRatioUpdated",
      "type": "event"
    },
    {
      "anonymous": false,
      "inputs": [
        {
          "indexed": true,
          "internalType": "uint256",
          "name": "block",
          "type": "uint256"
        },
        {
          "indexed": false,
          "internalType": "uint256",
          "name": "minBetAmount",
          "type": "uint256"
        }
      ],
      "name": "MinBetAmountUpdated",
      "type": "event"
    },
    {
      "anonymous": false,
      "inputs": [
        {
          "indexed": true,
          "internalType": "address",
          "name": "previousOwner",
          "type": "address"
        },
        {
          "indexed": true,
          "internalType": "address",
          "name": "newOwner",
          "type": "address"
        }
      ],
      "name": "OwnershipTransferred",
      "type": "event"
    },
    {
      "anonymous": false,
      "inputs": [
        {
          "indexed": true,
          "internalType": "uint256",
          "name": "block",
          "type": "uint256"
        },
        {
          "indexed": false,
          "internalType": "uint256",
          "name": "gapRate",
          "type": "uint256"
        },
        {
          "indexed": false,
          "internalType": "uint256",
          "name": "lcBackRate",
          "type": "uint256"
        },
        {
          "indexed": false,
          "internalType": "uint256",
          "name": "bonusRate",
          "type": "uint256"
        }
      ],
      "name": "RatesUpdated",
      "type": "event"
    },
    {
      "inputs": [],
      "name": "TOTAL_RATE",
      "outputs": [
        {
          "internalType": "uint256",
          "name": "",
          "type": "uint256"
        }
      ],
      "stateMutability": "view",
      "type": "function"
    },
    {
      "inputs": [],
      "name": "adminAddress",
      "outputs": [
        {
          "internalType": "address",
          "name": "",
          "type": "address"
        }
      ],
      "stateMutability": "view",
      "type": "function"
    },
    {
      "inputs": [],
      "name": "bankerTimeBlocks",
      "outputs": [
        {
          "internalType": "uint256",
          "name": "",
          "type": "uint256"
        }
      ],
      "stateMutability": "view",
      "type": "function"
    },
    {
      "inputs": [],
      "name": "bonusRate",
      "outputs": [
        {
          "internalType": "uint256",
          "name": "",
          "type": "uint256"
        }
      ],
      "stateMutability": "view",
      "type": "function"
    },
    {
      "inputs": [],
      "name": "feeAmount",
      "outputs": [
        {
          "internalType": "uint256",
          "name": "",
          "type": "uint256"
        }
      ],
      "stateMutability": "view",
      "type": "function"
    },
    {
      "inputs": [],
      "name": "gapRate",
      "outputs": [
        {
          "internalType": "uint256",
          "name": "",
          "type": "uint256"
        }
      ],
      "stateMutability": "view",
      "type": "function"
    },
    {
      "inputs": [],
      "name": "intervalBlocks",
      "outputs": [
        {
          "internalType": "uint256",
          "name": "",
          "type": "uint256"
        }
      ],
      "stateMutability": "view",
      "type": "function"
    },
    {
      "inputs": [],
      "name": "lcBackRate",
      "outputs": [
        {
          "internalType": "uint256",
          "name": "",
          "type": "uint256"
        }
      ],
      "stateMutability": "view",
      "type": "function"
    },
    {
      "inputs": [],
      "name": "maxBankerAmount",
      "outputs": [
        {
          "internalType": "uint256",
          "name": "",
          "type": "uint256"
        }
      ],
      "stateMutability": "view",
      "type": "function"
    },
    {
      "inputs": [],
      "name": "maxBetRatio",
      "outputs": [
        {
          "internalType": "uint256",
          "name": "",
          "type": "uint256"
        }
      ],
      "stateMutability": "view",
      "type": "function"
    },
    {
      "inputs": [],
      "name": "maxExposureRatio",
      "outputs": [
        {
          "internalType": "uint256",
          "name": "",
          "type": "uint256"
        }
      ],
      "stateMutability": "view",
      "type": "function"
    },
    {
      "inputs": [],
      "name": "minBetAmount",
      "outputs": [
        {
          "internalType": "uint256",
          "name": "",
          "type": "uint256"
        }
      ],
      "stateMutability": "view",
      "type": "function"
    },
    {
      "inputs": [],
      "name": "owner",
      "outputs": [
        {
          "internalType": "address",
          "name": "",
          "type": "address"
        }
      ],
      "stateMutability": "view",
      "type": "function"
    },
    {
      "inputs": [],
      "name": "playerTimeBlocks",
      "outputs": [
        {
          "internalType": "uint256",
          "name": "",
          "type": "uint256"
        }
      ],
      "stateMutability": "view",
      "type": "function"
    },
    {
      "inputs": [],
      "name": "renounceOwnership",
      "outputs": [],
      "stateMutability": "nonpayable",
      "type": "function"
    },
    {
      "inputs": [
        {
          "internalType": "address",
          "name": "newOwner",
          "type": "address"
        }
      ],
      "name": "transferOwnership",
      "outputs": [],
      "stateMutability": "nonpayable",
      "type": "function"
    },
    {
      "inputs": [
        {
          "internalType": "uint256",
          "name": "_intervalBlocks",
          "type": "uint256"
        },
        {
          "internalType": "uint256",
          "name": "_playerTimeBlocks",
          "type": "uint256"
        },
        {
          "internalType": "uint256",
          "name": "_bankerTimeBlocks",
          "type": "uint256"
        }
      ],
      "name": "setBlocks",
      "outputs": [],
      "stateMutability": "nonpayable",
      "type": "function"
    },
    {
      "inputs": [
        {
          "internalType": "uint256",
          "name": "_gapRate",
          "type": "uint256"
        },
        {
          "internalType": "uint256",
          "name": "_lcBackRate",
          "type": "uint256"
        },
        {
          "internalType": "uint256",
          "name": "_bonusRate",
          "type": "uint256"
        }
      ],
      "name": "setRates",
      "outputs": [],
      "stateMutability": "nonpayable",
      "type": "function"
    },
    {
      "inputs": [
        {
          "internalType": "uint256",
          "name": "_minBetAmount",
          "type": "uint256"
        }
      ],
      "name": "setMinBetAmount",
      "outputs": [],
      "stateMutability": "nonpayable",
      "type": "function"
    },
    {
      "inputs": [
        {
          "internalType": "uint256",
          "name": "_maxBetRatio",
          "type": "uint256"
        }
      ],
      "name": "setMaxBetRatio",
      "outputs": [],
      "stateMutability": "nonpayable",
      "type": "function"
    },
    {
      "inputs": [
        {
          "internalType": "uint256",
          "name": "_maxExposureRatio",
          "type": "uint256"
        }
      ],
      "name": "setMaxExposureRatio",
      "outputs": [],
      "stateMutability": "nonpayable",
      "type": "function"
    },
    {
      "inputs": [
        {
          "internalType": "uint256",
          "name": "_feeAmount",
          "type": "uint256"
        }
      ],
      "name": "setFeeAmount",
      "outputs": [],
      "stateMutability": "nonpayable",
      "type": "function"
    },
    {
      "inputs": [
        {
          "internalType": "uint256",
          "name": "_maxBankerAmount",
          "type": "uint256"
        }
      ],
      "name": "setMaxBankerAmount",
      "outputs": [],
      "stateMutability": "nonpayable",
      "type": "function"
    },
    {
      "inputs": [
        {
          "internalType": "address",
          "name": "_adminAddress",
          "type": "address"
        }
      ],
      "name": "setAdmin",
      "outputs": [],
      "stateMutability": "nonpayable",
      "type": "function"
    }
  ],
  "bytecode": "0x60806040526101f46004556103e86005556103e8600655600560085561012c60095534801561002d57600080fd5b506000610038610087565b600080546001600160a01b0319166001600160a01b0383169081178255604051929350917f8be0079c531659141344cd1fd0a4f28419497f9722a3daafe3b4186f6b6457e0908290a35061008b565b3390565b610f5f8061009a6000396000f3fe608060405234801561001057600080fd5b50600436106101985760003560e01c8063715018a6116100e3578063d004f38b1161008c578063f2fde38b11610066578063f2fde38b14610358578063fa968eea1461038b578063fc6f94681461039357610198565b8063d004f38b1461031f578063e13b787014610348578063e89cd14a1461035057610198565b8063b29c299b116100bd578063b29c299b14610307578063b78ae0111461030f578063c17bcdee1461031757610198565b8063715018a6146102b15780638da5cb5b146102b957806393f8cfde146102ea57610198565b80635699d0d7116101455780636b3926801161011f5780636b392680146102445780636c18859314610261578063704b6c021461027e57610198565b80635699d0d71461022c5780635af123f41461023457806369e154041461023c57610198565b80633fcceacc116101765780633fcceacc146101ea57806341b6d554146101f25780634a2c6fbe1461020f57610198565b8063094a0e5f1461019d5780631ec9f34b146101b757806339295fb5146101bf575b600080fd5b6101a561039b565b60408051918252519081900360200190f35b6101a56103a1565b6101e8600480360360608110156101d557600080fd5b50803590602081013590604001356103a7565b005b6101a561043b565b6101e86004803603602081101561020857600080fd5b5035610441565b6101e86004803603602081101561022557600080fd5b5035610505565b6101a56105c9565b6101a56105cf565b6101a56105d5565b6101e86004803603602081101561025a57600080fd5b50356105db565b6101e86004803603602081101561027757600080fd5b503561069f565b6101e86004803603602081101561029457600080fd5b503573ffffffffffffffffffffffffffffffffffffffff16610763565b6101e86108d4565b6102c16109eb565b6040805173ffffffffffffffffffffffffffffffffffffffff9092168252519081900360200190f35b6101e86004803603602081101561030057600080fd5b5035610a07565b6101a5610acb565b6101a5610ad1565b6101a5610ad7565b6101e86004803603606081101561033557600080fd5b5080359060208101359060400135610add565b6101a5610c8f565b6101a5610c95565b6101e86004803603602081101561036e57600080fd5b503573ffffffffffffffffffffffffffffffffffffffff16610c9b565b6101a5610e3c565b6102c1610e42565b60035481565b60015481565b600c5473ffffffffffffffffffffffffffffffffffffffff16331461042d57604080517f08c379a000000000000000000000000000000000000000000000000000000000815260206004820152600b60248201527f61646d696e3a207775743f000000000000000000000000000000000000000000604482015290519081900360640190fd5b600192909255600255600355565b60025481565b600c5473ffffffffffffffffffffffffffffffffffffffff1633146104c757604080517f08c379a000000000000000000000000000000000000000000000000000000000815260206004820152600b60248201527f61646d696e3a207775743f000000000000000000000000000000000000000000604482015290519081900360640190fd5b600881905560408051828152905143917fe9dbf362c3f800f55b82e4fffe8e3cc02fb845bf408ff033a811b35ff447a5b5919081900360200190a250565b600c5473ffffffffffffffffffffffffffffffffffffffff16331461058b57604080517f08c379a000000000000000000000000000000000000000000000000000000000815260206004820152600b60248201527f61646d696e3a207775743f000000000000000000000000000000000000000000604482015290519081900360640190fd5b600b81905560408051828152905143917fa1d1fb0f3a3d0460b083d9a62a9590e1755df9530a80f03fb35e76ffab4d2631919081900360200190a250565b600b5481565b60065481565b600a5481565b600c5473ffffffffffffffffffffffffffffffffffffffff16331461066157604080517f08c379a000000000000000000000000000000000000000000000000000000000815260206004820152600b60248201527f61646d696e3a207775743f000000000000000000000000000000000000000000604482015290519081900360640190fd5b600a81905560408051828152905143917fb6600428041f36ab218d984115a85adc1ffb17cb85a81801032cb590a8a8bc99919081900360200190a250565b600c5473ffffffffffffffffffffffffffffffffffffffff16331461072557604080517f08c379a000000000000000000000000000000000000000000000000000000000815260206004820152600b60248201527f61646d696e3a207775743f000000000000000000000000000000000000000000604482015290519081900360640190fd5b600781905560408051828152905143917f82480e97991520549ac4b5d0e1d97edb3bfac2666202923b6903d2a953dc7608919081900360200190a250565b61076b610e5e565b73ffffffffffffffffffffffffffffffffffffffff166107896109eb565b73ffffffffffffffffffffffffffffffffffffffff161461080b57604080517f08c379a000000000000000000000000000000000000000000000000000000000815260206004820181905260248201527f4f776e61626c653a2063616c6c6572206973206e6f7420746865206f776e6572604482015290519081900360640190fd5b73ffffffffffffffffffffffffffffffffffffffff811661088d57604080517f08c379a000000000000000000000000000000000000000000000000000000000815260206004820152601660248201527f43616e6e6f74206265207a65726f206164647265737300000000000000000000604482015290519081900360640190fd5b600c80547fffffffffffffffffffffffff00000000000000000000000000000000000000001673ffffffffffffffffffffffffffffffffffffffff92909216919091179055565b6108dc610e5e565b73ffffffffffffffffffffffffffffffffffffffff166108fa6109eb565b73ffffffffffffffffffffffffffffffffffffffff161461097c57604080517f08c379a000000000000000000000000000000000000000000000000000000000815260206004820181905260248201527f4f776e61626c653a2063616c6c6572206973206e6f7420746865206f776e6572604482015290519081900360640190fd5b6000805460405173ffffffffffffffffffffffffffffffffffffffff909116907f8be0079c531659141344cd1fd0a4f28419497f9722a3daafe3b4186f6b6457e0908390a3600080547fffffffffffffffffffffffff0000000000000000000000000000000000000000169055565b60005473ffffffffffffffffffffffffffffffffffffffff1690565b600c5473ffffffffffffffffffffffffffffffffffffffff163314610a8d57604080517f08c379a000000000000000000000000000000000000000000000000000000000815260206004820152600b60248201527f61646d696e3a207775743f000000000000000000000000000000000000000000604482015290519081900360640190fd5b600981905560408051828152905143917f28ea1989b0d19f7806bf9cb2ae9cca09a8350c4510b08a9197b91e0bfe0564a5919081900360200190a250565b61271081565b60055481565b60085481565b600c5473ffffffffffffffffffffffffffffffffffffffff163314610b6357604080517f08c379a000000000000000000000000000000000000000000000000000000000815260206004820152600b60248201527f61646d696e3a207775743f000000000000000000000000000000000000000000604482015290519081900360640190fd5b6103e8831115610bd457604080517f08c379a000000000000000000000000000000000000000000000000000000000815260206004820152600e60248201527f67617052617465203c3d20313025000000000000000000000000000000000000604482015290519081900360640190fd5b612710610be18383610e62565b1115610c38576040517f08c379a0000000000000000000000000000000000000000000000000000000008152600401808060200182810382526026815260200180610ede6026913960400191505060405180910390fd5b6004839055600582905560068190556040805184815260208101849052808201839052905143917f83ee137d4eea1eef0029a0cb811df31b555f216d3a45c791729e226eb145a7d5919081900360600190a2505050565b60045481565b60095481565b610ca3610e5e565b73ffffffffffffffffffffffffffffffffffffffff16610cc16109eb565b73ffffffffffffffffffffffffffffffffffffffff1614610d4357604080517f08c379a000000000000000000000000000000000000000000000000000000000815260206004820181905260248201527f4f776e61626c653a2063616c6c6572206973206e6f7420746865206f776e6572604482015290519081900360640190fd5b73ffffffffffffffffffffffffffffffffffffffff8116610daf576040517f08c379a0000000000000000000000000000000000000000000000000000000008152600401808060200182810382526026815260200180610f046026913960400191505060405180910390fd5b6000805460405173ffffffffffffffffffffffffffffffffffffffff808516939216917f8be0079c531659141344cd1fd0a4f28419497f9722a3daafe3b4186f6b6457e091a3600080547fffffffffffffffffffffffff00000000000000000000000000000000000000001673ffffffffffffffffffffffffffffffffffffffff92909216919091179055565b60075481565b600c5473ffffffffffffffffffffffffffffffffffffffff1681565b3390565b600082820183811015610ed657604080517f08c379a000000000000000000000000000000000000000000000000000000000815260206004820152601b60248201527f536166654d6174683a206164646974696f6e206f766572666c6f770000000000604482015290519081900360640190fd5b939250505056fe5f6c634261636b52617465202b205f626f6e757352617465203c3d20544f54414c5f524154454f776e61626c653a206e6577206f776e657220697320746865207a65726f2061646472657373a264697066735822122078f7073fa12ce5d405b688f2b56206286733c377cac0917e90a7fd3a6969708264736f6c634300060c0033",
  "immutableReferences": {},
  "source": "// SPDX-License-Identifier: MIT\n\npragma solidity 0.6.12;\n\nimport \"@openzeppelin/contracts/access/Ownable.sol\";\nimport \"@openzeppelin/contracts/math/SafeMath.sol\";\nimport \"@openzeppelin/contracts/utils/Address.sol\";\n\n// Dice Limit\ncontract DiceLimit is Ownable {\n    using SafeMath for uint256;\n    using Address for address;\n\n    uint256 public intervalBlocks;\n    uint256 public playerTimeBlocks;\n    uint256 public bankerTimeBlocks;\n    uint256 public constant TOTAL_RATE = 10000; // 100%\n    uint256 public gapRate = 500;\n    uint256 public lcBackRate = 1000; // 10% in gap\n    uint256 public bonusRate = 1000; // 10% in gap\n    uint256 public minBetAmount;\n    uint256 public maxBetRatio = 5;\n    uint256 public maxExposureRatio = 300;\n    uint256 public feeAmount;\n    uint256 public maxBankerAmount;\n    address public adminAddress;\n\n    event RatesUpdated(uint256 indexed block, uint256 gapRate, uint256 lcBackRate, uint256 bonusRate);\n    event MinBetAmountUpdated(uint256 indexed block, uint256 minBetAmount);\n    event MaxBetRatioUpdated(uint256 indexed block, uint256 maxBetRatio);\n    event MaxExposureRatioUpdated(uint256 indexed block, uint256 maxExposureRatio);\n    event FeeAmountUpdated(uint256 indexed block, uint256 feeAmount);\n    event MaxBankerAmountUpdated(uint256 indexed block, uint256 maxBankerAmount);\n\n\tconstructor() public {}\n\n    modifier onlyAdmin() {\n        require(msg.sender == adminAddress, \"admin: wut?\");\n        _;\n    }\n\n    // set blocks\n    function setBlocks(uint256 _intervalBlocks, uint256 _playerTimeBlocks, uint256 _bankerTimeBlocks) external onlyAdmin {\n        intervalBlocks = _intervalBlocks;\n        playerTimeBlocks = _playerTimeBlocks;\n        bankerTimeBlocks = _bankerTimeBlocks;\n    }\n\n    // set rates\n    function setRates(uint256 _gapRate, uint256 _lcBackRate, uint256 _bonusRate) external onlyAdmin {\n        require(_gapRate <= 1000, \"gapRate <= 10%\");\n        require(_lcBackRate.add(_bonusRate) <= TOTAL_RATE, \"_lcBackRate + _bonusRate <= TOTAL_RATE\");\n        gapRate = _gapRate;\n        lcBackRate = _lcBackRate;\n        bonusRate = _bonusRate;\n\n        emit RatesUpdated(block.number, gapRate, lcBackRate, bonusRate);\n    }\n\n    // set minBetAmount\n    function setMinBetAmount(uint256 _minBetAmount) external onlyAdmin {\n        minBetAmount = _minBetAmount;\n        emit MinBetAmountUpdated(block.number, minBetAmount);\n    }\n\n    // set maxBetRatio\n    function setMaxBetRatio(uint256 _maxBetRatio) external onlyAdmin {\n        maxBetRatio = _maxBetRatio;\n        emit MaxBetRatioUpdated(block.number, maxBetRatio);\n    }\n\n    // set maxExposureRatio\n    function setMaxExposureRatio(uint256 _maxExposureRatio) external onlyAdmin {\n        maxExposureRatio = _maxExposureRatio;\n        emit MaxExposureRatioUpdated(block.number, maxExposureRatio);\n    }\n\n    // set feeAmount\n    function setFeeAmount(uint256 _feeAmount) external onlyAdmin {\n        feeAmount = _feeAmount;\n        emit FeeAmountUpdated(block.number, feeAmount);\n    }\n \n    // set maxBankerAmount\n    function setMaxBankerAmount(uint256 _maxBankerAmount) external onlyAdmin {\n        maxBankerAmount = _maxBankerAmount;\n        emit MaxBankerAmountUpdated(block.number, maxBankerAmount);\n    }\n\n    // set admin address\n    function setAdmin(address _adminAddress) external onlyOwner {\n        require(_adminAddress != address(0), \"Cannot be zero address\");\n        adminAddress = _adminAddress;\n    }\n}\n",
  "sourcePath": "/home/ubuntu/defi/luckychip/dice/contracts/DiceLimit.sol",
  "compiler": {
    "name": "solc",
    "version": "0.6.12+commit.27d51765.Emscripten.clang"
  },
  "schemaVersion": "3.4.1",
  "updatedAt": "2021-08-06T02:53:52.079Z",
  "devdoc": {
    "kind": "dev",
    "methods": {
      "owner()": {
        "details": "Returns the address of the current owner."
      },
      "renounceOwnership()": {
        "details": "Leaves the contract without owner. It will not be possible to call `onlyOwner` functions anymore. Can only be called by the current owner. NOTE: Renouncing ownership will leave the contract without an owner, thereby removing any functionality that is only available to the owner."
      },
      "transferOwnership(address)": {
        "details": "Transfers ownership of the contract to a new account (`newOwner`). Can only be called by the current owner."
      }
    },
    "version": 1
  },
  "userdoc": {
    "kind": "user",
    "methods": {},
    "version": 1
  }
}