{
  "contractName": "MasterChef",
  "abi": [
    {
      "inputs": [
        {
          "internalType": "contract LCToken",
          "name": "_LC",
          "type": "address"
        },
        {
          "internalType": "address",
          "name": "_dev0addr",
          "type": "address"
        },
        {
          "internalType": "address",
          "name": "_dev1addr",
          "type": "address"
        },
        {
          "internalType": "address",
          "name": "_dev2addr",
          "type": "address"
        },
        {
          "internalType": "address",
          "name": "_safuaddr",
          "type": "address"
        },
        {
          "internalType": "address",
          "name": "_treasuryaddr",
          "type": "address"
        },
        {
          "internalType": "uint256",
          "name": "_LCPerBlock",
          "type": "uint256"
        },
        {
          "internalType": "uint256",
          "name": "_startBlock",
          "type": "uint256"
        },
        {
          "internalType": "uint256",
          "name": "_stakingPercent",
          "type": "uint256"
        },
        {
          "internalType": "uint256",
          "name": "_dev0Percent",
          "type": "uint256"
        },
        {
          "internalType": "uint256",
          "name": "_dev1Percent",
          "type": "uint256"
        },
        {
          "internalType": "uint256",
          "name": "_dev2Percent",
          "type": "uint256"
        },
        {
          "internalType": "uint256",
          "name": "_safuPercent",
          "type": "uint256"
        }
      ],
      "stateMutability": "nonpayable",
      "type": "constructor"
    },
    {
      "anonymous": false,
      "inputs": [
        {
          "indexed": true,
          "internalType": "address",
          "name": "user",
          "type": "address"
        },
        {
          "indexed": true,
          "internalType": "uint256",
          "name": "pid",
          "type": "uint256"
        },
        {
          "indexed": false,
          "internalType": "uint256",
          "name": "amount",
          "type": "uint256"
        }
      ],
      "name": "Deposit",
      "type": "event"
    },
    {
      "anonymous": false,
      "inputs": [
        {
          "indexed": true,
          "internalType": "address",
          "name": "user",
          "type": "address"
        },
        {
          "indexed": true,
          "internalType": "uint256",
          "name": "pid",
          "type": "uint256"
        },
        {
          "indexed": false,
          "internalType": "uint256",
          "name": "amount",
          "type": "uint256"
        }
      ],
      "name": "EmergencyWithdraw",
      "type": "event"
    },
    {
      "anonymous": false,
      "inputs": [
        {
          "indexed": true,
          "internalType": "address",
          "name": "caller",
          "type": "address"
        },
        {
          "indexed": false,
          "internalType": "uint256",
          "name": "previousAmount",
          "type": "uint256"
        },
        {
          "indexed": false,
          "internalType": "uint256",
          "name": "newAmount",
          "type": "uint256"
        }
      ],
      "name": "EmissionRateUpdated",
      "type": "event"
    },
    {
      "anonymous": false,
      "inputs": [
        {
          "indexed": true,
          "internalType": "address",
          "name": "previousOwner",
          "type": "address"
        },
        {
          "indexed": true,
          "internalType": "address",
          "name": "newOwner",
          "type": "address"
        }
      ],
      "name": "OwnershipTransferred",
      "type": "event"
    },
    {
      "anonymous": false,
      "inputs": [
        {
          "indexed": true,
          "internalType": "address",
          "name": "user",
          "type": "address"
        },
        {
          "indexed": true,
          "internalType": "address",
          "name": "referrer",
          "type": "address"
        },
        {
          "indexed": false,
          "internalType": "uint256",
          "name": "commissionAmount",
          "type": "uint256"
        }
      ],
      "name": "ReferralCommissionPaid",
      "type": "event"
    },
    {
      "anonymous": false,
      "inputs": [
        {
          "indexed": true,
          "internalType": "address",
          "name": "user",
          "type": "address"
        },
        {
          "indexed": true,
          "internalType": "uint256",
          "name": "pid",
          "type": "uint256"
        },
        {
          "indexed": false,
          "internalType": "uint256",
          "name": "amount",
          "type": "uint256"
        }
      ],
      "name": "Withdraw",
      "type": "event"
    },
    {
      "inputs": [],
      "name": "BONUS_MULTIPLIER",
      "outputs": [
        {
          "internalType": "uint256",
          "name": "",
          "type": "uint256"
        }
      ],
      "stateMutability": "view",
      "type": "function",
      "constant": true
    },
    {
      "inputs": [],
      "name": "LC",
      "outputs": [
        {
          "internalType": "contract LCToken",
          "name": "",
          "type": "address"
        }
      ],
      "stateMutability": "view",
      "type": "function",
      "constant": true
    },
    {
      "inputs": [],
      "name": "LCPerBlock",
      "outputs": [
        {
          "internalType": "uint256",
          "name": "",
          "type": "uint256"
        }
      ],
      "stateMutability": "view",
      "type": "function",
      "constant": true
    },
    {
      "inputs": [],
      "name": "MAXIMUM_REFERRAL_COMMISSION_RATE",
      "outputs": [
        {
          "internalType": "uint16",
          "name": "",
          "type": "uint16"
        }
      ],
      "stateMutability": "view",
      "type": "function",
      "constant": true
    },
    {
      "inputs": [
        {
          "internalType": "uint256",
          "name": "",
          "type": "uint256"
        }
      ],
      "name": "bonusInfo",
      "outputs": [
        {
          "internalType": "contract IBEP20",
          "name": "bonusToken",
          "type": "address"
        },
        {
          "internalType": "uint256",
          "name": "lastBalance",
          "type": "uint256"
        },
        {
          "internalType": "uint256",
          "name": "lastRewardBlock",
          "type": "uint256"
        }
      ],
      "stateMutability": "view",
      "type": "function",
      "constant": true
    },
    {
      "inputs": [],
      "name": "dev0Percent",
      "outputs": [
        {
          "internalType": "uint256",
          "name": "",
          "type": "uint256"
        }
      ],
      "stateMutability": "view",
      "type": "function",
      "constant": true
    },
    {
      "inputs": [],
      "name": "dev0addr",
      "outputs": [
        {
          "internalType": "address",
          "name": "",
          "type": "address"
        }
      ],
      "stateMutability": "view",
      "type": "function",
      "constant": true
    },
    {
      "inputs": [],
      "name": "dev1Percent",
      "outputs": [
        {
          "internalType": "uint256",
          "name": "",
          "type": "uint256"
        }
      ],
      "stateMutability": "view",
      "type": "function",
      "constant": true
    },
    {
      "inputs": [],
      "name": "dev1addr",
      "outputs": [
        {
          "internalType": "address",
          "name": "",
          "type": "address"
        }
      ],
      "stateMutability": "view",
      "type": "function",
      "constant": true
    },
    {
      "inputs": [],
      "name": "dev2Percent",
      "outputs": [
        {
          "internalType": "uint256",
          "name": "",
          "type": "uint256"
        }
      ],
      "stateMutability": "view",
      "type": "function",
      "constant": true
    },
    {
      "inputs": [],
      "name": "dev2addr",
      "outputs": [
        {
          "internalType": "address",
          "name": "",
          "type": "address"
        }
      ],
      "stateMutability": "view",
      "type": "function",
      "constant": true
    },
    {
      "inputs": [],
      "name": "lastBlockDevWithdraw",
      "outputs": [
        {
          "internalType": "uint256",
          "name": "",
          "type": "uint256"
        }
      ],
      "stateMutability": "view",
      "type": "function",
      "constant": true
    },
    {
      "inputs": [],
      "name": "luckychipReferral",
      "outputs": [
        {
          "internalType": "contract ILuckyChipReferral",
          "name": "",
          "type": "address"
        }
      ],
      "stateMutability": "view",
      "type": "function",
      "constant": true
    },
    {
      "inputs": [],
      "name": "owner",
      "outputs": [
        {
          "internalType": "address",
          "name": "",
          "type": "address"
        }
      ],
      "stateMutability": "view",
      "type": "function",
      "constant": true
    },
    {
      "inputs": [],
      "name": "percentDec",
      "outputs": [
        {
          "internalType": "uint256",
          "name": "",
          "type": "uint256"
        }
      ],
      "stateMutability": "view",
      "type": "function",
      "constant": true
    },
    {
      "inputs": [
        {
          "internalType": "uint256",
          "name": "",
          "type": "uint256"
        },
        {
          "internalType": "uint256",
          "name": "",
          "type": "uint256"
        }
      ],
      "name": "poolBonusPerShare",
      "outputs": [
        {
          "internalType": "uint256",
          "name": "",
          "type": "uint256"
        }
      ],
      "stateMutability": "view",
      "type": "function",
      "constant": true
    },
    {
      "inputs": [
        {
          "internalType": "uint256",
          "name": "",
          "type": "uint256"
        }
      ],
      "name": "poolInfo",
      "outputs": [
        {
          "internalType": "contract IBEP20",
          "name": "lpToken",
          "type": "address"
        },
        {
          "internalType": "uint256",
          "name": "allocPoint",
          "type": "uint256"
        },
        {
          "internalType": "uint256",
          "name": "bonusPoint",
          "type": "uint256"
        },
        {
          "internalType": "uint256",
          "name": "lastRewardBlock",
          "type": "uint256"
        },
        {
          "internalType": "uint256",
          "name": "accLCPerShare",
          "type": "uint256"
        }
      ],
      "stateMutability": "view",
      "type": "function",
      "constant": true
    },
    {
      "inputs": [],
      "name": "referralCommissionRate",
      "outputs": [
        {
          "internalType": "uint16",
          "name": "",
          "type": "uint16"
        }
      ],
      "stateMutability": "view",
      "type": "function",
      "constant": true
    },
    {
      "inputs": [],
      "name": "renounceOwnership",
      "outputs": [],
      "stateMutability": "nonpayable",
      "type": "function"
    },
    {
      "inputs": [],
      "name": "safuPercent",
      "outputs": [
        {
          "internalType": "uint256",
          "name": "",
          "type": "uint256"
        }
      ],
      "stateMutability": "view",
      "type": "function",
      "constant": true
    },
    {
      "inputs": [],
      "name": "safuaddr",
      "outputs": [
        {
          "internalType": "address",
          "name": "",
          "type": "address"
        }
      ],
      "stateMutability": "view",
      "type": "function",
      "constant": true
    },
    {
      "inputs": [],
      "name": "stakingPercent",
      "outputs": [
        {
          "internalType": "uint256",
          "name": "",
          "type": "uint256"
        }
      ],
      "stateMutability": "view",
      "type": "function",
      "constant": true
    },
    {
      "inputs": [],
      "name": "startBlock",
      "outputs": [
        {
          "internalType": "uint256",
          "name": "",
          "type": "uint256"
        }
      ],
      "stateMutability": "view",
      "type": "function",
      "constant": true
    },
    {
      "inputs": [],
      "name": "totalAllocPoint",
      "outputs": [
        {
          "internalType": "uint256",
          "name": "",
          "type": "uint256"
        }
      ],
      "stateMutability": "view",
      "type": "function",
      "constant": true
    },
    {
      "inputs": [],
      "name": "totalBonusPoint",
      "outputs": [
        {
          "internalType": "uint256",
          "name": "",
          "type": "uint256"
        }
      ],
      "stateMutability": "view",
      "type": "function",
      "constant": true
    },
    {
      "inputs": [
        {
          "internalType": "address",
          "name": "newOwner",
          "type": "address"
        }
      ],
      "name": "transferOwnership",
      "outputs": [],
      "stateMutability": "nonpayable",
      "type": "function"
    },
    {
      "inputs": [],
      "name": "treasuryaddr",
      "outputs": [
        {
          "internalType": "address",
          "name": "",
          "type": "address"
        }
      ],
      "stateMutability": "view",
      "type": "function",
      "constant": true
    },
    {
      "inputs": [
        {
          "internalType": "uint256",
          "name": "",
          "type": "uint256"
        },
        {
          "internalType": "address",
          "name": "",
          "type": "address"
        }
      ],
      "name": "userBonusDebt",
      "outputs": [
        {
          "internalType": "uint256",
          "name": "",
          "type": "uint256"
        }
      ],
      "stateMutability": "view",
      "type": "function",
      "constant": true
    },
    {
      "inputs": [
        {
          "internalType": "uint256",
          "name": "",
          "type": "uint256"
        },
        {
          "internalType": "address",
          "name": "",
          "type": "address"
        }
      ],
      "name": "userInfo",
      "outputs": [
        {
          "internalType": "uint256",
          "name": "amount",
          "type": "uint256"
        },
        {
          "internalType": "uint256",
          "name": "rewardDebt",
          "type": "uint256"
        }
      ],
      "stateMutability": "view",
      "type": "function",
      "constant": true
    },
    {
      "inputs": [
        {
          "internalType": "uint256",
          "name": "multiplierNumber",
          "type": "uint256"
        }
      ],
      "name": "updateMultiplier",
      "outputs": [],
      "stateMutability": "nonpayable",
      "type": "function"
    },
    {
      "inputs": [],
      "name": "poolLength",
      "outputs": [
        {
          "internalType": "uint256",
          "name": "",
          "type": "uint256"
        }
      ],
      "stateMutability": "view",
      "type": "function",
      "constant": true
    },
    {
      "inputs": [],
      "name": "bonusLength",
      "outputs": [
        {
          "internalType": "uint256",
          "name": "",
          "type": "uint256"
        }
      ],
      "stateMutability": "view",
      "type": "function",
      "constant": true
    },
    {
      "inputs": [],
      "name": "withdrawDevFee",
      "outputs": [],
      "stateMutability": "nonpayable",
      "type": "function"
    },
    {
      "inputs": [
        {
          "internalType": "uint256",
          "name": "_allocPoint",
          "type": "uint256"
        },
        {
          "internalType": "uint256",
          "name": "_bonusPoint",
          "type": "uint256"
        },
        {
          "internalType": "contract IBEP20",
          "name": "_lpToken",
          "type": "address"
        },
        {
          "internalType": "bool",
          "name": "_withUpdate",
          "type": "bool"
        }
      ],
      "name": "add",
      "outputs": [],
      "stateMutability": "nonpayable",
      "type": "function"
    },
    {
      "inputs": [
        {
          "internalType": "contract IBEP20",
          "name": "_bonusToken",
          "type": "address"
        }
      ],
      "name": "addBonus",
      "outputs": [],
      "stateMutability": "nonpayable",
      "type": "function"
    },
    {
      "inputs": [
        {
          "internalType": "uint256",
          "name": "_pid",
          "type": "uint256"
        },
        {
          "internalType": "uint256",
          "name": "_allocPoint",
          "type": "uint256"
        }
      ],
      "name": "set",
      "outputs": [],
      "stateMutability": "nonpayable",
      "type": "function"
    },
    {
      "inputs": [
        {
          "internalType": "uint256",
          "name": "_from",
          "type": "uint256"
        },
        {
          "internalType": "uint256",
          "name": "_to",
          "type": "uint256"
        }
      ],
      "name": "getMultiplier",
      "outputs": [
        {
          "internalType": "uint256",
          "name": "",
          "type": "uint256"
        }
      ],
      "stateMutability": "view",
      "type": "function",
      "constant": true
    },
    {
      "inputs": [
        {
          "internalType": "uint256",
          "name": "_pid",
          "type": "uint256"
        },
        {
          "internalType": "address",
          "name": "_user",
          "type": "address"
        }
      ],
      "name": "pendingLC",
      "outputs": [
        {
          "internalType": "uint256",
          "name": "",
          "type": "uint256"
        }
      ],
      "stateMutability": "view",
      "type": "function",
      "constant": true
    },
    {
      "inputs": [
        {
          "internalType": "uint256",
          "name": "_pid",
          "type": "uint256"
        },
        {
          "internalType": "address",
          "name": "_user",
          "type": "address"
        }
      ],
      "name": "pendingBonus",
      "outputs": [
        {
          "internalType": "uint256[]",
          "name": "",
          "type": "uint256[]"
        }
      ],
      "stateMutability": "view",
      "type": "function",
      "constant": true
    },
    {
      "inputs": [],
      "name": "massUpdatePools",
      "outputs": [],
      "stateMutability": "nonpayable",
      "type": "function"
    },
    {
      "inputs": [
        {
          "internalType": "uint256",
          "name": "_pid",
          "type": "uint256"
        }
      ],
      "name": "updatePool",
      "outputs": [],
      "stateMutability": "nonpayable",
      "type": "function"
    },
    {
      "inputs": [
        {
          "internalType": "uint256",
          "name": "_bonusId",
          "type": "uint256"
        }
      ],
      "name": "updateBonus",
      "outputs": [],
      "stateMutability": "nonpayable",
      "type": "function"
    },
    {
      "inputs": [
        {
          "internalType": "uint256",
          "name": "_pid",
          "type": "uint256"
        },
        {
          "internalType": "uint256",
          "name": "_amount",
          "type": "uint256"
        },
        {
          "internalType": "address",
          "name": "_referrer",
          "type": "address"
        }
      ],
      "name": "deposit",
      "outputs": [],
      "stateMutability": "nonpayable",
      "type": "function"
    },
    {
      "inputs": [
        {
          "internalType": "uint256",
          "name": "_pid",
          "type": "uint256"
        },
        {
          "internalType": "uint256",
          "name": "_amount",
          "type": "uint256"
        }
      ],
      "name": "withdraw",
      "outputs": [],
      "stateMutability": "nonpayable",
      "type": "function"
    },
    {
      "inputs": [
        {
          "internalType": "uint256",
          "name": "_pid",
          "type": "uint256"
        }
      ],
      "name": "emergencyWithdraw",
      "outputs": [],
      "stateMutability": "nonpayable",
      "type": "function"
    },
    {
      "inputs": [
        {
          "internalType": "address",
          "name": "_dev0addr",
          "type": "address"
        },
        {
          "internalType": "address",
          "name": "_dev1addr",
          "type": "address"
        },
        {
          "internalType": "address",
          "name": "_dev2addr",
          "type": "address"
        }
      ],
      "name": "setDevAddress",
      "outputs": [],
      "stateMutability": "nonpayable",
      "type": "function"
    },
    {
      "inputs": [
        {
          "internalType": "address",
          "name": "_safuaddr",
          "type": "address"
        }
      ],
      "name": "setSafuAddress",
      "outputs": [],
      "stateMutability": "nonpayable",
      "type": "function"
    },
    {
      "inputs": [
        {
          "internalType": "address",
          "name": "_treasuryaddr",
          "type": "address"
        }
      ],
      "name": "setTreasuryAddress",
      "outputs": [],
      "stateMutability": "nonpayable",
      "type": "function"
    },
    {
      "inputs": [
        {
          "internalType": "uint256",
          "name": "newAmount",
          "type": "uint256"
        }
      ],
      "name": "updateLcPerBlock",
      "outputs": [],
      "stateMutability": "nonpayable",
      "type": "function"
    },
    {
      "inputs": [
        {
          "internalType": "uint16",
          "name": "_referralCommissionRate",
          "type": "uint16"
        }
      ],
      "name": "setReferralCommissionRate",
      "outputs": [],
      "stateMutability": "nonpayable",
      "type": "function"
    }
  ],
  "bytecode": "0x6080604052620f42406003556001601055600060168190556017556019805461ffff60a01b1916601960a21b1790553480156200003b57600080fd5b50604051620044c4380380620044c483398181016040526101a08110156200006257600080fd5b508051602082015160408301516060840151608085015160a086015160c087015160e08801516101008901516101208a01516101408b01516101608c0151610180909c01519a9b999a989997989697959694959394929391929091906000620000ca620001b7565b600080546001600160a01b0319166001600160a01b0383169081178255604051929350917f8be0079c531659141344cd1fd0a4f28419497f9722a3daafe3b4186f6b6457e0908290a35060018055600280546001600160a01b039e8f166001600160a01b031991821617909155600980549d8f169d82169d909d17909c55600a80549b8e169b8d169b909b17909a55600b8054998d16998c1699909917909855600d8054978c16978b1697909717909655600c805495909a169490981693909317909755600f556018869055600455600593909355600692909255600791909155600855600e55620001bb565b3390565b6142f980620001cb6000396000f3fe608060405234801561001057600080fd5b50600436106103355760003560e01c80637c7be2fa116101b2578063b76e360c116100f9578063d30ef61b116100a2578063f05b58f71161007c578063f05b58f7146108bd578063f2fde38b146108c5578063fc8820a1146108f8578063fdb85cd21461093157610335565b8063d30ef61b14610866578063defc10741461086e578063e0dcd30d146108b557610335565b8063be1193ea116100d3578063be1193ea14610823578063cb93f7ef1461082b578063d074ddf81461083357610335565b8063b76e360c146107da578063bb90320c146107e2578063bd62a7d91461081b57610335565b80638dbb1e3a1161015b57806393f1a40b1161013557806393f1a40b146107635780639f8dbb7b146107b5578063a82a3cd6146107d257610335565b80638dbb1e3a146106e45780638dbdbe6d14610707578063929a396c1461074657610335565b80638aa285501161018c5780638aa285501461068f5780638b607ca5146106975780638da5cb5b146106dc57610335565b80637c7be2fa1461064c5780637e85867f1461067f57806385e877651461068757610335565b80635312ea8e11610281578063630b5ba11161022a5780636b1f69a5116102045780636b1f69a5146105615780636b91a2c9146105b35780636e99b75e1461063c578063715018a61461064457610335565b8063630b5ba11461051e5780636605bfda1461052657806366e989711461055957610335565b80635981a7cd1161025b5780635981a7cd146104f15780635ec7ebbd146104f95780635ffe61461461050157610335565b80635312ea8e1461049057806355dbc826146104ad57806359805be7146104ce57610335565b806321b1aecb116102e357806348b22bfb116102bd57806348b22bfb1461044c57806348cd4cb11461046b57806351eb05a61461047357610335565b806321b1aecb146103f05780632720e4f6146103f8578063441a3e701461042957610335565b80631526fe27116103145780631526fe271461036457806317caf6f1146103c35780631ab06ee5146103cb57610335565b8062a2e3be1461033a578063081e3eda14610354578063148685181461035c575b600080fd5b610342610939565b60408051918252519081900360200190f35b61034261093f565b610342610945565b6103816004803603602081101561037a57600080fd5b503561094b565b6040805173ffffffffffffffffffffffffffffffffffffffff909616865260208601949094528484019290925260608401526080830152519081900360a00190f35b6103426109a0565b6103ee600480360360408110156103e157600080fd5b50803590602001356109a6565b005b610342610b33565b610400610b39565b6040805173ffffffffffffffffffffffffffffffffffffffff9092168252519081900360200190f35b6103ee6004803603604081101561043f57600080fd5b5080359060200135610b55565b610454610e24565b6040805161ffff9092168252519081900360200190f35b610342610e2a565b6103ee6004803603602081101561048957600080fd5b5035610e30565b6103ee600480360360208110156104a657600080fd5b50356110a0565b6103ee600480360360208110156104c357600080fd5b503561ffff16611234565b610342600480360360408110156104e457600080fd5b5080359060200135611388565b6103426113b6565b6104006113bc565b6103ee6004803603602081101561051757600080fd5b50356113d8565b6103ee611485565b6103ee6004803603602081101561053c57600080fd5b503573ffffffffffffffffffffffffffffffffffffffff166114a4565b610400611593565b61057e6004803603602081101561057757600080fd5b50356115af565b6040805173ffffffffffffffffffffffffffffffffffffffff9094168452602084019290925282820152519081900360600190f35b6105ec600480360360408110156105c957600080fd5b508035906020013573ffffffffffffffffffffffffffffffffffffffff166115f6565b60408051602080825283518183015283519192839290830191858101910280838360005b83811015610628578181015183820152602001610610565b505050509050019250505060405180910390f35b6104006117b9565b6103ee6117d5565b6103ee6004803603602081101561066257600080fd5b503573ffffffffffffffffffffffffffffffffffffffff166118ec565b6104006119db565b6103426119f7565b6103426119fd565b6103ee600480360360608110156106ad57600080fd5b5073ffffffffffffffffffffffffffffffffffffffff8135811691602081013582169160409091013516611a03565b610400611b0f565b610342600480360360408110156106fa57600080fd5b5080359060200135611b2b565b6103ee6004803603606081101561071d57600080fd5b508035906020810135906040013573ffffffffffffffffffffffffffffffffffffffff16611b48565b6103ee6004803603602081101561075c57600080fd5b5035611e92565b61079c6004803603604081101561077957600080fd5b508035906020013573ffffffffffffffffffffffffffffffffffffffff1661202d565b6040805192835260208301919091528051918290030190f35b6103ee600480360360208110156107cb57600080fd5b5035612051565b610400612315565b610342612331565b610342600480360360408110156107f857600080fd5b508035906020013573ffffffffffffffffffffffffffffffffffffffff16612337565b61034261253f565b610342612545565b6103ee61254b565b6103ee6004803603602081101561084957600080fd5b503573ffffffffffffffffffffffffffffffffffffffff16612895565b610454612aa2565b6103ee6004803603608081101561088457600080fd5b5080359060208101359073ffffffffffffffffffffffffffffffffffffffff60408201351690606001351515612ac4565b610400612cfb565b610342612d17565b6103ee600480360360208110156108db57600080fd5b503573ffffffffffffffffffffffffffffffffffffffff16612d1d565b6103426004803603604081101561090e57600080fd5b508035906020013573ffffffffffffffffffffffffffffffffffffffff16612ebe565b610342612edb565b60085481565b60115490565b60065481565b6011818154811061095857fe5b60009182526020909120600590910201805460018201546002830154600384015460049094015473ffffffffffffffffffffffffffffffffffffffff90931694509092909185565b60165481565b6109ae612ee1565b73ffffffffffffffffffffffffffffffffffffffff166109cc611b0f565b73ffffffffffffffffffffffffffffffffffffffff1614610a4e57604080517f08c379a000000000000000000000000000000000000000000000000000000000815260206004820181905260248201527f4f776e61626c653a2063616c6c6572206973206e6f7420746865206f776e6572604482015290519081900360640190fd5b60115482908110610ac057604080517f08c379a000000000000000000000000000000000000000000000000000000000815260206004820152600e60248201527f706f6f6c206e6f74206578697374000000000000000000000000000000000000604482015290519081900360640190fd5b610ac8611485565b610b0582610aff60118681548110610adc57fe5b906000526020600020906005020160010154601654612ee590919063ffffffff16565b90612f5c565b6016819055508160118481548110610b1957fe5b906000526020600020906005020160010181905550505050565b60035481565b60025473ffffffffffffffffffffffffffffffffffffffff1681565b60026001541415610bc757604080517f08c379a000000000000000000000000000000000000000000000000000000000815260206004820152601f60248201527f5265656e7472616e637947756172643a207265656e7472616e742063616c6c00604482015290519081900360640190fd5b600260015560115482908110610c3e57604080517f08c379a000000000000000000000000000000000000000000000000000000000815260206004820152600e60248201527f706f6f6c206e6f74206578697374000000000000000000000000000000000000604482015290519081900360640190fd5b600060118481548110610c4d57fe5b600091825260208083208784526015825260408085203386529092529220805460059092029092019250841115610ce557604080517f08c379a000000000000000000000000000000000000000000000000000000000815260206004820152601260248201527f77697468647261773a206e6f7420676f6f640000000000000000000000000000604482015290519081900360640190fd5b610cee85610e30565b610cf88533612fd0565b600282015415610d0c57610d0c85336130df565b8315610d43578054610d1e9085612ee5565b81558154610d439073ffffffffffffffffffffffffffffffffffffffff1633866132f1565b60048201548154610d649164e8d4a5100091610d5e9161337e565b906133f1565b6001820155600282015415610de25760005b601254811015610de057610dbe64e8d4a51000610d5e601360008a81526020019081526020016000208481548110610daa57fe5b60009182526020909120015485549061337e565b6000828152601460209081526040808320338452909152902055600101610d76565b505b604080518581529051869133917ff279e6a1f5e320cca91135676d9cb6e44ca8a08c0b88342bcdb1144f6511b5689181900360200190a3505060018055505050565b6103e881565b60185481565b60115481908110610ea257604080517f08c379a000000000000000000000000000000000000000000000000000000000815260206004820152600e60248201527f706f6f6c206e6f74206578697374000000000000000000000000000000000000604482015290519081900360640190fd5b600060118381548110610eb157fe5b9060005260206000209060050201905080600301544311610ed2575061109c565b8054604080517f70a08231000000000000000000000000000000000000000000000000000000008152306004820152905160009273ffffffffffffffffffffffffffffffffffffffff16916370a08231916024808301926020929190829003018186803b158015610f4257600080fd5b505afa158015610f56573d6000803e3d6000fd5b505050506040513d6020811015610f6c57600080fd5b5051905080610f8257504360039091015561109c565b6000610f92836003015443611b2b565b90506000610fcb600354610d5e600454610fc5601654610d5e8a60010154610fc5600f548b61337e90919063ffffffff16565b9061337e565b600254604080517f40c10f1900000000000000000000000000000000000000000000000000000000815230600482015260248101849052905192935073ffffffffffffffffffffffffffffffffffffffff909116916340c10f199160448082019260009290919082900301818387803b15801561104757600080fd5b505af115801561105b573d6000803e3d6000fd5b5050505061108961107e84610d5e64e8d4a510008561337e90919063ffffffff16565b600486015490612f5c565b6004850155505043600390920191909155505b5050565b6002600154141561111257604080517f08c379a000000000000000000000000000000000000000000000000000000000815260206004820152601f60248201527f5265656e7472616e637947756172643a207265656e7472616e742063616c6c00604482015290519081900360640190fd5b60026001556011548190811061118957604080517f08c379a000000000000000000000000000000000000000000000000000000000815260206004820152600e60248201527f706f6f6c206e6f74206578697374000000000000000000000000000000000000604482015290519081900360640190fd5b60006011838154811061119857fe5b600091825260208083208684526015825260408085203380875293529093208054600590930290930180549094506111ea9273ffffffffffffffffffffffffffffffffffffffff9190911691906132f1565b80546040805191825251859133917fbb757047c2b5f3974fe26b7c10f732e7bce710b0952a71082702781e62ae05959181900360200190a360008082556001918201558055505050565b61123c612ee1565b73ffffffffffffffffffffffffffffffffffffffff1661125a611b0f565b73ffffffffffffffffffffffffffffffffffffffff16146112dc57604080517f08c379a000000000000000000000000000000000000000000000000000000000815260206004820181905260248201527f4f776e61626c653a2063616c6c6572206973206e6f7420746865206f776e6572604482015290519081900360640190fd5b6103e861ffff8216111561133b576040517f08c379a00000000000000000000000000000000000000000000000000000000081526004018080602001828103825260488152602001806141bb6048913960600191505060405180910390fd5b6019805461ffff90921674010000000000000000000000000000000000000000027fffffffffffffffffffff0000ffffffffffffffffffffffffffffffffffffffff909216919091179055565b601360205281600052604060002081815481106113a157fe5b90600052602060002001600091509150505481565b600f5481565b60195473ffffffffffffffffffffffffffffffffffffffff1681565b6113e0612ee1565b73ffffffffffffffffffffffffffffffffffffffff166113fe611b0f565b73ffffffffffffffffffffffffffffffffffffffff161461148057604080517f08c379a000000000000000000000000000000000000000000000000000000000815260206004820181905260248201527f4f776e61626c653a2063616c6c6572206973206e6f7420746865206f776e6572604482015290519081900360640190fd5b601055565b60115460005b8181101561109c5761149c81610e30565b60010161148b565b6114ac612ee1565b73ffffffffffffffffffffffffffffffffffffffff166114ca611b0f565b73ffffffffffffffffffffffffffffffffffffffff161461154c57604080517f08c379a000000000000000000000000000000000000000000000000000000000815260206004820181905260248201527f4f776e61626c653a2063616c6c6572206973206e6f7420746865206f776e6572604482015290519081900360640190fd5b600c80547fffffffffffffffffffffffff00000000000000000000000000000000000000001673ffffffffffffffffffffffffffffffffffffffff92909216919091179055565b60095473ffffffffffffffffffffffffffffffffffffffff1681565b601281815481106115bc57fe5b600091825260209091206003909102018054600182015460029092015473ffffffffffffffffffffffffffffffffffffffff909116925083565b6011546060908390811061166b57604080517f08c379a000000000000000000000000000000000000000000000000000000000815260206004820152600e60248201527f706f6f6c206e6f74206578697374000000000000000000000000000000000000604482015290519081900360640190fd5b60006011858154811061167a57fe5b6000918252602080832088845260158252604080852073ffffffffffffffffffffffffffffffffffffffff8a16865290925292206012546005909202909201925060609067ffffffffffffffff811180156116d457600080fd5b506040519080825280602002602001820160405280156116fe578160200160208202803683370190505b506002840154909150156117af5760005b6012548110156117ad57600081815260146020908152604080832073ffffffffffffffffffffffffffffffffffffffff8b1684528252808320548b84526013909252909120805461178e92916117889164e8d4a5100091610d5e918790811061177457fe5b60009182526020909120015488549061337e565b90612ee5565b82828151811061179a57fe5b602090810291909101015260010161170f565b505b9695505050505050565b600c5473ffffffffffffffffffffffffffffffffffffffff1681565b6117dd612ee1565b73ffffffffffffffffffffffffffffffffffffffff166117fb611b0f565b73ffffffffffffffffffffffffffffffffffffffff161461187d57604080517f08c379a000000000000000000000000000000000000000000000000000000000815260206004820181905260248201527f4f776e61626c653a2063616c6c6572206973206e6f7420746865206f776e6572604482015290519081900360640190fd5b6000805460405173ffffffffffffffffffffffffffffffffffffffff909116907f8be0079c531659141344cd1fd0a4f28419497f9722a3daafe3b4186f6b6457e0908390a3600080547fffffffffffffffffffffffff0000000000000000000000000000000000000000169055565b6118f4612ee1565b73ffffffffffffffffffffffffffffffffffffffff16611912611b0f565b73ffffffffffffffffffffffffffffffffffffffff161461199457604080517f08c379a000000000000000000000000000000000000000000000000000000000815260206004820181905260248201527f4f776e61626c653a2063616c6c6572206973206e6f7420746865206f776e6572604482015290519081900360640190fd5b600d80547fffffffffffffffffffffffff00000000000000000000000000000000000000001673ffffffffffffffffffffffffffffffffffffffff92909216919091179055565b600b5473ffffffffffffffffffffffffffffffffffffffff1681565b60125490565b60105481565b611a0b612ee1565b73ffffffffffffffffffffffffffffffffffffffff16611a29611b0f565b73ffffffffffffffffffffffffffffffffffffffff1614611aab57604080517f08c379a000000000000000000000000000000000000000000000000000000000815260206004820181905260248201527f4f776e61626c653a2063616c6c6572206973206e6f7420746865206f776e6572604482015290519081900360640190fd5b6009805473ffffffffffffffffffffffffffffffffffffffff9485167fffffffffffffffffffffffff000000000000000000000000000000000000000091821617909155600a805493851693821693909317909255600b8054919093169116179055565b60005473ffffffffffffffffffffffffffffffffffffffff1690565b601054600090611b3f90610fc58486612ee5565b90505b92915050565b60026001541415611bba57604080517f08c379a000000000000000000000000000000000000000000000000000000000815260206004820152601f60248201527f5265656e7472616e637947756172643a207265656e7472616e742063616c6c00604482015290519081900360640190fd5b600260015560115483908110611c3157604080517f08c379a000000000000000000000000000000000000000000000000000000000815260206004820152600e60248201527f706f6f6c206e6f74206578697374000000000000000000000000000000000000604482015290519081900360640190fd5b600060118581548110611c4057fe5b60009182526020808320888452601582526040808520338652909252922060059091029091019150611c7186610e30565b600085118015611c98575060195473ffffffffffffffffffffffffffffffffffffffff1615155b8015611cb9575073ffffffffffffffffffffffffffffffffffffffff841615155b8015611cdb575073ffffffffffffffffffffffffffffffffffffffff84163314155b15611d7357601954604080517f0c7f7b6b00000000000000000000000000000000000000000000000000000000815233600482015273ffffffffffffffffffffffffffffffffffffffff878116602483015291519190921691630c7f7b6b91604480830192600092919082900301818387803b158015611d5a57600080fd5b505af1158015611d6e573d6000803e3d6000fd5b505050505b611d7d8633612fd0565b600282015415611d9157611d9186336130df565b8415611dca578154611dbb9073ffffffffffffffffffffffffffffffffffffffff16333088613472565b8054611dc79086612f5c565b81555b60048201548154611de59164e8d4a5100091610d5e9161337e565b6001820155600282015415611e4f5760005b601254811015611e4d57611e2b64e8d4a51000610d5e601360008b81526020019081526020016000208481548110610daa57fe5b6000828152601460209081526040808320338452909152902055600101611df7565b505b604080518681529051879133917f90890809c654f11d6e72a28fa60149770a0d11ec6c92319d6ceb2bb0a4ea1a159181900360200190a350506001805550505050565b611e9a612ee1565b73ffffffffffffffffffffffffffffffffffffffff16611eb8611b0f565b73ffffffffffffffffffffffffffffffffffffffff1614611f3a57604080517f08c379a000000000000000000000000000000000000000000000000000000000815260206004820181905260248201527f4f776e61626c653a2063616c6c6572206973206e6f7420746865206f776e6572604482015290519081900360640190fd5b68056bc75e2d63100000811115611fb257604080517f08c379a000000000000000000000000000000000000000000000000000000000815260206004820152601460248201527f4d61782070657220626c6f636b20313030204c43000000000000000000000000604482015290519081900360640190fd5b66038d7ea4c6800081101561202857604080517f08c379a000000000000000000000000000000000000000000000000000000000815260206004820152601660248201527f4d696e2070657220626c6f636b20302e303031204c4300000000000000000000604482015290519081900360640190fd5b600f55565b60156020908152600092835260408084209091529082529020805460019091015482565b60125481106120ab576040517f08c379a000000000000000000000000000000000000000000000000000000000815260040180806020018281038252602a815260200180614279602a913960400191505060405180910390fd5b6000601282815481106120ba57fe5b6000918252602080832060039092029091018054604080517f70a08231000000000000000000000000000000000000000000000000000000008152306004820152905192955073ffffffffffffffffffffffffffffffffffffffff909116926370a0823192602480840193829003018186803b15801561213957600080fd5b505afa15801561214d573d6000803e3d6000fd5b505050506040513d602081101561216357600080fd5b5051600183015490915081111561231057600061218d836001015483612ee590919063ffffffff16565b905060005b601154811015612300576000601182815481106121ab57fe5b6000918252602080832060059092029091018054604080517f70a08231000000000000000000000000000000000000000000000000000000008152306004820152905192955073ffffffffffffffffffffffffffffffffffffffff909116926370a0823192602480840193829003018186803b15801561222a57600080fd5b505afa15801561223e573d6000803e3d6000fd5b505050506040513d602081101561225457600080fd5b50519050806122645750506122f8565b6002820154156122f5576122ce61229b82610d5e64e8d4a51000610fc5601754610d5e89600201548c61337e90919063ffffffff16565b600085815260136020526040902080548a9081106122b557fe5b9060005260206000200154612f5c90919063ffffffff16565b60008481526013602052604090208054899081106122e857fe5b6000918252602090912001555b50505b600101612192565b5050600182018190554360028301555b505050565b600a5473ffffffffffffffffffffffffffffffffffffffff1681565b600e5481565b601154600090839081106123ac57604080517f08c379a000000000000000000000000000000000000000000000000000000000815260206004820152600e60248201527f706f6f6c206e6f74206578697374000000000000000000000000000000000000604482015290519081900360640190fd5b6000601185815481106123bb57fe5b6000918252602080832088845260158252604080852073ffffffffffffffffffffffffffffffffffffffff8a81168752908452818620600595909502909201600481810154825484517f70a082310000000000000000000000000000000000000000000000000000000081523093810193909352935192985095969492909316926370a08231926024808301939192829003018186803b15801561245e57600080fd5b505afa158015612472573d6000803e3d6000fd5b505050506040513d602081101561248857600080fd5b505160038501549091504311801561249f57508015155b1561250b5760006124b4856003015443611b2b565b905060006124e7600354610d5e600454610fc5601654610d5e8c60010154610fc5600f548b61337e90919063ffffffff16565b90506125066124ff84610d5e8464e8d4a5100061337e565b8590612f5c565b935050505b612533836001015461178864e8d4a51000610d5e86886000015461337e90919063ffffffff16565b98975050505050505050565b60055481565b60045481565b43600e54106125bb57604080517f08c379a000000000000000000000000000000000000000000000000000000000815260206004820152601260248201527f7761697420666f72206e657720626c6f636b0000000000000000000000000000604482015290519081900360640190fd5b60006125c9600e5443611b2b565b905060006125e2600f548361337e90919063ffffffff16565b60025460095460035460055493945073ffffffffffffffffffffffffffffffffffffffff928316936340c10f1993909216916126249190610d5e90879061337e565b6040518363ffffffff1660e01b8152600401808373ffffffffffffffffffffffffffffffffffffffff16815260200182815260200192505050600060405180830381600087803b15801561267757600080fd5b505af115801561268b573d6000803e3d6000fd5b5050600254600a5460035460065473ffffffffffffffffffffffffffffffffffffffff93841695506340c10f19945091909216916126ce91610d5e90879061337e565b6040518363ffffffff1660e01b8152600401808373ffffffffffffffffffffffffffffffffffffffff16815260200182815260200192505050600060405180830381600087803b15801561272157600080fd5b505af1158015612735573d6000803e3d6000fd5b5050600254600b5460035460075473ffffffffffffffffffffffffffffffffffffffff93841695506340c10f199450919092169161277891610d5e90879061337e565b6040518363ffffffff1660e01b8152600401808373ffffffffffffffffffffffffffffffffffffffff16815260200182815260200192505050600060405180830381600087803b1580156127cb57600080fd5b505af11580156127df573d6000803e3d6000fd5b5050600254600d5460035460085473ffffffffffffffffffffffffffffffffffffffff93841695506340c10f199450919092169161282291610d5e90879061337e565b6040518363ffffffff1660e01b8152600401808373ffffffffffffffffffffffffffffffffffffffff16815260200182815260200192505050600060405180830381600087803b15801561287557600080fd5b505af1158015612889573d6000803e3d6000fd5b505043600e5550505050565b61289d612ee1565b73ffffffffffffffffffffffffffffffffffffffff166128bb611b0f565b73ffffffffffffffffffffffffffffffffffffffff161461293d57604080517f08c379a000000000000000000000000000000000000000000000000000000000815260206004820181905260248201527f4f776e61626c653a2063616c6c6572206973206e6f7420746865206f776e6572604482015290519081900360640190fd5b6129468161350d565b600060185443116129595760185461295b565b435b6040805160608101825273ffffffffffffffffffffffffffffffffffffffff85811682526000602083018181529383018581526012805460018101825590835293517fbb8a6a4669ba250d26cd7a459eca9d215f8307e33aebe50379bc5a3617ec3444600390950294850180547fffffffffffffffffffffffff000000000000000000000000000000000000000016919094161790925592517fbb8a6a4669ba250d26cd7a459eca9d215f8307e33aebe50379bc5a3617ec3445830155517fbb8a6a4669ba250d26cd7a459eca9d215f8307e33aebe50379bc5a3617ec3446909101559091505b60115481101561231057600060118281548110612a5b57fe5b90600052602060002090600502019050600081600201541115612a995760008281526013602090815260408220805460018101825590835290822001555b50600101612a42565b60195474010000000000000000000000000000000000000000900461ffff1681565b612acc612ee1565b73ffffffffffffffffffffffffffffffffffffffff16612aea611b0f565b73ffffffffffffffffffffffffffffffffffffffff1614612b6c57604080517f08c379a000000000000000000000000000000000000000000000000000000000815260206004820181905260248201527f4f776e61626c653a2063616c6c6572206973206e6f7420746865206f776e6572604482015290519081900360640190fd5b612b75826135db565b8015612b8357612b83611485565b60006018544311612b9657601854612b98565b435b601654909150612ba89086612f5c565b601655601754612bb89085612f5c565b6017556040805160a08101825273ffffffffffffffffffffffffffffffffffffffff9485168152602081019687529081019485526060810191825260006080820181815260118054600181018255925291517f31ecc21a745e3968a04e9570e4425bc18fa8019c68028196b546d1669c200c68600590920291820180547fffffffffffffffffffffffff000000000000000000000000000000000000000016919096161790945594517f31ecc21a745e3968a04e9570e4425bc18fa8019c68028196b546d1669c200c6984015592517f31ecc21a745e3968a04e9570e4425bc18fa8019c68028196b546d1669c200c6a8301555090517f31ecc21a745e3968a04e9570e4425bc18fa8019c68028196b546d1669c200c6b82015590517f31ecc21a745e3968a04e9570e4425bc18fa8019c68028196b546d1669c200c6c90910155565b600d5473ffffffffffffffffffffffffffffffffffffffff1681565b60075481565b612d25612ee1565b73ffffffffffffffffffffffffffffffffffffffff16612d43611b0f565b73ffffffffffffffffffffffffffffffffffffffff1614612dc557604080517f08c379a000000000000000000000000000000000000000000000000000000000815260206004820181905260248201527f4f776e61626c653a2063616c6c6572206973206e6f7420746865206f776e6572604482015290519081900360640190fd5b73ffffffffffffffffffffffffffffffffffffffff8116612e31576040517f08c379a000000000000000000000000000000000000000000000000000000000815260040180806020018281038252602681526020018061422d6026913960400191505060405180910390fd5b6000805460405173ffffffffffffffffffffffffffffffffffffffff808516939216917f8be0079c531659141344cd1fd0a4f28419497f9722a3daafe3b4186f6b6457e091a3600080547fffffffffffffffffffffffff00000000000000000000000000000000000000001673ffffffffffffffffffffffffffffffffffffffff92909216919091179055565b601460209081526000928352604080842090915290825290205481565b60175481565b3390565b600082821115612f5657604080517f08c379a000000000000000000000000000000000000000000000000000000000815260206004820152601e60248201527f536166654d6174683a207375627472616374696f6e206f766572666c6f770000604482015290519081900360640190fd5b50900390565b600082820183811015611b3f57604080517f08c379a000000000000000000000000000000000000000000000000000000000815260206004820152601b60248201527f536166654d6174683a206164646974696f6e206f766572666c6f770000000000604482015290519081900360640190fd5b6011548290811061304257604080517f08c379a000000000000000000000000000000000000000000000000000000000815260206004820152600e60248201527f706f6f6c206e6f74206578697374000000000000000000000000000000000000604482015290519081900360640190fd5b60006011848154811061305157fe5b6000918252602080832087845260158252604080852073ffffffffffffffffffffffffffffffffffffffff891686529092529083206001810154600460059094029092019283015481549395509093926130bb92916117889164e8d4a5100091610d5e919061337e565b905080156130d7576130cd85826136a9565b6130d785826138a4565b505050505050565b6011548290811061315157604080517f08c379a000000000000000000000000000000000000000000000000000000000815260206004820152600e60248201527f706f6f6c206e6f74206578697374000000000000000000000000000000000000604482015290519081900360640190fd5b60006011848154811061316057fe5b6000918252602080832087845260158252604080852073ffffffffffffffffffffffffffffffffffffffff8916865290925292206002600590920290920190810154909250156132ea5760125460008681526013602052604090205414613212576040517f08c379a00000000000000000000000000000000000000000000000000000000081526004018080602001828103825260378152602001806141846037913960400191505060405180910390fd5b60005b6012548110156130d757600081815260146020908152604080832073ffffffffffffffffffffffffffffffffffffffff8916845282528083205489845260139092528220805461327992916117889164e8d4a5100091610d5e918890811061177457fe5b905080156132e15760006012838154811061329057fe5b906000526020600020906003020190506132b7828260010154612ee590919063ffffffff16565b600182015580546132df9073ffffffffffffffffffffffffffffffffffffffff1688846132f1565b505b50600101613215565b5050505050565b6040805173ffffffffffffffffffffffffffffffffffffffff8416602482015260448082018490528251808303909101815260649091019091526020810180517bffffffffffffffffffffffffffffffffffffffffffffffffffffffff167fa9059cbb00000000000000000000000000000000000000000000000000000000179052612310908490613e13565b60008261338d57506000611b42565b8282028284828161339a57fe5b0414611b3f576040517f08c379a00000000000000000000000000000000000000000000000000000000081526004018080602001828103825260218152602001806142a36021913960400191505060405180910390fd5b600080821161346157604080517f08c379a000000000000000000000000000000000000000000000000000000000815260206004820152601a60248201527f536166654d6174683a206469766973696f6e206279207a65726f000000000000604482015290519081900360640190fd5b81838161346a57fe5b049392505050565b6040805173ffffffffffffffffffffffffffffffffffffffff80861660248301528416604482015260648082018490528251808303909101815260849091019091526020810180517bffffffffffffffffffffffffffffffffffffffffffffffffffffffff167f23b872dd00000000000000000000000000000000000000000000000000000000179052613507908590613e13565b50505050565b60125460005b81811015612310578273ffffffffffffffffffffffffffffffffffffffff166012828154811061353f57fe5b600091825260209091206003909102015473ffffffffffffffffffffffffffffffffffffffff1614156135d357604080517f08c379a000000000000000000000000000000000000000000000000000000000815260206004820152600d60248201527f626f6e7573206578697374656400000000000000000000000000000000000000604482015290519081900360640190fd5b600101613513565b60115460005b81811015612310578273ffffffffffffffffffffffffffffffffffffffff166011828154811061360d57fe5b600091825260209091206005909102015473ffffffffffffffffffffffffffffffffffffffff1614156136a157604080517f08c379a000000000000000000000000000000000000000000000000000000000815260206004820152600c60248201527f706f6f6c20657869737465640000000000000000000000000000000000000000604482015290519081900360640190fd5b6001016135e1565b600254604080517f70a08231000000000000000000000000000000000000000000000000000000008152306004820152905160009273ffffffffffffffffffffffffffffffffffffffff16916370a08231916024808301926020929190829003018186803b15801561371a57600080fd5b505afa15801561372e573d6000803e3d6000fd5b505050506040513d602081101561374457600080fd5b50519050808211156137fe57600254604080517fa9059cbb00000000000000000000000000000000000000000000000000000000815273ffffffffffffffffffffffffffffffffffffffff8681166004830152602482018590529151919092169163a9059cbb9160448083019260209291908290030181600087803b1580156137cc57600080fd5b505af11580156137e0573d6000803e3d6000fd5b505050506040513d60208110156137f657600080fd5b506123109050565b600254604080517fa9059cbb00000000000000000000000000000000000000000000000000000000815273ffffffffffffffffffffffffffffffffffffffff8681166004830152602482018690529151919092169163a9059cbb9160448083019260209291908290030181600087803b15801561387a57600080fd5b505af115801561388e573d6000803e3d6000fd5b505050506040513d60208110156132ea57600080fd5b60195474010000000000000000000000000000000000000000900461ffff161561109c5760195473ffffffffffffffffffffffffffffffffffffffff1615613ce757601954604080517f4a9fefc700000000000000000000000000000000000000000000000000000000815273ffffffffffffffffffffffffffffffffffffffff858116600483015291516000939290921691634a9fefc791602480820192602092909190829003018186803b15801561395d57600080fd5b505afa158015613971573d6000803e3d6000fd5b505050506040513d602081101561398757600080fd5b50516019549091506000906139c19061271090610d5e90869074010000000000000000000000000000000000000000900461ffff1661337e565b90508015613ce05773ffffffffffffffffffffffffffffffffffffffff821615613b5f57600254604080517f40c10f1900000000000000000000000000000000000000000000000000000000815273ffffffffffffffffffffffffffffffffffffffff858116600483015260248201859052915191909216916340c10f1991604480830192600092919082900301818387803b158015613a6057600080fd5b505af1158015613a74573d6000803e3d6000fd5b5050601954604080517fdc1694b800000000000000000000000000000000000000000000000000000000815273ffffffffffffffffffffffffffffffffffffffff878116600483015260248201879052915191909216935063dc1694b89250604480830192600092919082900301818387803b158015613af357600080fd5b505af1158015613b07573d6000803e3d6000fd5b505060408051848152905173ffffffffffffffffffffffffffffffffffffffff8087169450881692507f86ddab457291316e0f5496737e5ca67c4037234c32c3be04c48ae96186893a7b9181900360200190a3613ce0565b600254600c54604080517f40c10f1900000000000000000000000000000000000000000000000000000000815273ffffffffffffffffffffffffffffffffffffffff928316600482015260248101859052905191909216916340c10f1991604480830192600092919082900301818387803b158015613bdd57600080fd5b505af1158015613bf1573d6000803e3d6000fd5b5050601954600c54604080517fdc1694b800000000000000000000000000000000000000000000000000000000815273ffffffffffffffffffffffffffffffffffffffff928316600482015260248101879052905191909216935063dc1694b89250604480830192600092919082900301818387803b158015613c7357600080fd5b505af1158015613c87573d6000803e3d6000fd5b5050600c5460408051858152905173ffffffffffffffffffffffffffffffffffffffff928316945091881692507f86ddab457291316e0f5496737e5ca67c4037234c32c3be04c48ae96186893a7b919081900360200190a35b505061109c565b601954600090613d1c9061271090610d5e90859074010000000000000000000000000000000000000000900461ffff1661337e565b9050801561231057600254600c54604080517f40c10f1900000000000000000000000000000000000000000000000000000000815273ffffffffffffffffffffffffffffffffffffffff928316600482015260248101859052905191909216916340c10f1991604480830192600092919082900301818387803b158015613da257600080fd5b505af1158015613db6573d6000803e3d6000fd5b5050600c5460408051858152905173ffffffffffffffffffffffffffffffffffffffff928316945091871692507f86ddab457291316e0f5496737e5ca67c4037234c32c3be04c48ae96186893a7b919081900360200190a3505050565b6060613e75826040518060400160405280602081526020017f5361666542455032303a206c6f772d6c6576656c2063616c6c206661696c65648152508573ffffffffffffffffffffffffffffffffffffffff16613eeb9092919063ffffffff16565b80519091501561231057808060200190516020811015613e9457600080fd5b5051612310576040517f08c379a000000000000000000000000000000000000000000000000000000000815260040180806020018281038252602a815260200180614203602a913960400191505060405180910390fd5b6060613efa8484600085613f04565b90505b9392505050565b606082471015613f5f576040517f08c379a00000000000000000000000000000000000000000000000000000000081526004018080602001828103825260268152602001806142536026913960400191505060405180910390fd5b613f68856140bf565b613fd357604080517f08c379a000000000000000000000000000000000000000000000000000000000815260206004820152601d60248201527f416464726573733a2063616c6c20746f206e6f6e2d636f6e7472616374000000604482015290519081900360640190fd5b600060608673ffffffffffffffffffffffffffffffffffffffff1685876040518082805190602001908083835b6020831061403d57805182527fffffffffffffffffffffffffffffffffffffffffffffffffffffffffffffffe09092019160209182019101614000565b6001836020036101000a03801982511681845116808217855250505050505090500191505060006040518083038185875af1925050503d806000811461409f576040519150601f19603f3d011682016040523d82523d6000602084013e6140a4565b606091505b50915091506140b48282866140c5565b979650505050505050565b3b151590565b606083156140d4575081613efd565b8251156140e45782518084602001fd5b816040517f08c379a00000000000000000000000000000000000000000000000000000000081526004018080602001828103825283818151815260200191508051906020019080838360005b83811015614148578181015183820152602001614130565b50505050905090810190601f1680156141755780820380516001836020036101000a031916815260200191505b509250505060405180910390fdfe706f6f6c426f6e757350657253686172652e6c656e677468206d75737420657175616c20746f20626f6e7573496e6f66206c656e677468736574526566657272616c436f6d6d697373696f6e526174653a20696e76616c696420726566657272616c20636f6d6d697373696f6e207261746520626173697320706f696e74735361666542455032303a204245503230206f7065726174696f6e20646964206e6f7420737563636565644f776e61626c653a206e6577206f776e657220697320746865207a65726f2061646472657373416464726573733a20696e73756666696369656e742062616c616e636520666f722063616c6c626f6e75734964206d757374206265206c657373207468616e20626f6e7573496e666f206c656e677468536166654d6174683a206d756c7469706c69636174696f6e206f766572666c6f77a2646970667358221220021ae3c4ea1178a53cfbcb01b87619816f28155a18c0a185ef7d2b511f5ccaa264736f6c634300060c0033",
  "immutableReferences": {},
  "source": "// SPDX-License-Identifier: MIT\n\npragma solidity 0.6.12;\n\nimport \"@openzeppelin/contracts/math/SafeMath.sol\";\nimport \"./libs/IBEP20.sol\";\nimport \"./libs/SafeBEP20.sol\";\nimport \"./libs/ILuckyChipReferral.sol\";\nimport \"./libs/IMasterChef.sol\";\nimport \"@openzeppelin/contracts/access/Ownable.sol\";\nimport \"@openzeppelin/contracts/utils/ReentrancyGuard.sol\";\n\nimport \"./LCToken.sol\";\n\n// MasterChef is the master of LC. He can make LC and he is a fair guy.\n//\n// Note that it's ownable and the owner wields tremendous power. The ownership\n// will be transferred to a governance smart contract once LC is sufficiently\n// distributed and the community can show to govern itself.\n//\n// Have fun reading it. Hopefully it's bug-free. God bless.\ncontract MasterChef is Ownable, ReentrancyGuard, IMasterChef {\n    using SafeMath for uint256;\n    using SafeBEP20 for IBEP20;\n    // Info of each user.\n    struct UserInfo {\n        uint256 amount; // How many LP tokens the user has provided.\n        uint256 rewardDebt; // Reward debt. See explanation below.\n        //\n        // We do some fancy math here. Basically, any point in time, the amount of LCs\n        // entitled to a user but is pending to be distributed is:\n        //\n        //   pending reward = (user.amount * pool.accLCPerShare) - user.rewardDebt\n        //\n        // Whenever a user deposits or withdraws LP tokens to a pool. Here's what happens:\n        //   1. The pool's `accLCPerShare` (and `lastRewardBlock`) gets updated.\n        //   2. User receives the pending reward sent to his/her address.\n        //   3. User's `amount` gets updated.\n        //   4. User's `rewardDebt` gets updated.\n    }\n\n    // Info of each pool.\n    struct PoolInfo {\n        IBEP20 lpToken; // Address of LP token contract.\n        uint256 allocPoint; // How many allocation points assigned to this pool. LCs to distribute per block.\n        uint256 bonusPoint; // How many bonus points assigned to this pool.\n        uint256 lastRewardBlock; // Last block number that LCs distribution occurs.\n        uint256 accLCPerShare; // Accumulated LCs per share, times 1e12. See below.\n    }\n\n    struct BonusInfo {\n        IBEP20 bonusToken;\n\t\tuint256 lastBalance;\n        uint256 lastRewardBlock;\n    }\n\n    // The LC TOKEN!\n    LCToken public LC;\n    //Pools, Farms, Dev, Refs percent decimals\n    uint256 public percentDec = 1000000;\n    //Pools and Farms percent from token per block\n    uint256 public stakingPercent;\n    //Developers percent from token per block\n    uint256 public dev0Percent;\n    //Developers percent from token per block\n    uint256 public dev1Percent;\n    //Developers percent from token per block\n    uint256 public dev2Percent;\n    //Safu fund percent from token per block\n    uint256 public safuPercent;\n    // Dev0 address.\n    address public dev0addr;\n    // Dev1 address.\n    address public dev1addr;\n    // Dev2 address.\n    address public dev2addr;\n    // Treasury fund.\n    address public treasuryaddr;\n    // Safu fund.\n    address public safuaddr;\n    // Last block then develeper withdraw dev and ref fee\n    uint256 public lastBlockDevWithdraw;\n    // LC tokens created per block.\n    uint256 public LCPerBlock;\n    // Bonus muliplier for early LC makers.\n    uint256 public BONUS_MULTIPLIER = 1;\n    // Info of each pool.\n    PoolInfo[] public poolInfo;\n    // Info of each bonus.\n    BonusInfo[] public bonusInfo;\n    // mapping pid to bonus accPerShare.\n    mapping(uint256 => uint256[]) public poolBonusPerShare;\n    // user bonus debt\n    mapping(uint256 => mapping(address => uint256)) public userBonusDebt;\n    // Info of each user that stakes LP tokens.\n    mapping(uint256 => mapping(address => UserInfo)) public userInfo;\n    // Total allocation poitns. Must be the sum of all allocation points in all pools.\n    uint256 public totalAllocPoint = 0;\n    // Total bonus poitns. Must be the sum of all bonus points in all pools.\n    uint256 public totalBonusPoint = 0;\n    // The block number when LC mining starts.\n    uint256 public startBlock;\n\n    // LuckyChip referral contract address.\n    ILuckyChipReferral public luckychipReferral;\n    // Referral commission rate in basis points.\n    uint16 public referralCommissionRate = 100;\n    // Max referral commission rate: 10%.\n    uint16 public constant MAXIMUM_REFERRAL_COMMISSION_RATE = 1000;\n\n    event Deposit(address indexed user, uint256 indexed pid, uint256 amount);\n    event Withdraw(address indexed user, uint256 indexed pid, uint256 amount);\n    event EmergencyWithdraw(address indexed user, uint256 indexed pid, uint256 amount);\n    event EmissionRateUpdated(address indexed caller, uint256 previousAmount, uint256 newAmount);\n    event ReferralCommissionPaid(address indexed user, address indexed referrer, uint256 commissionAmount);\n\n    modifier validPool(uint256 _pid){\n        require(_pid < poolInfo.length, 'pool not exist');\n        _;\n    }\n\n    constructor(\n        LCToken _LC,\n        address _dev0addr,\n        address _dev1addr,\n        address _dev2addr,\n        address _safuaddr,\n        address _treasuryaddr,\n        uint256 _LCPerBlock,\n        uint256 _startBlock,\n        uint256 _stakingPercent,\n        uint256 _dev0Percent,\n        uint256 _dev1Percent,\n        uint256 _dev2Percent,\n        uint256 _safuPercent\n    ) public {\n        LC = _LC;\n        dev0addr = _dev0addr;\n        dev1addr = _dev1addr;\n        dev2addr = _dev2addr;\n        safuaddr = _safuaddr;\n        treasuryaddr = _treasuryaddr;\n        LCPerBlock = _LCPerBlock;\n        startBlock = _startBlock;\n        stakingPercent = _stakingPercent;\n        dev0Percent = _dev0Percent;\n        dev1Percent = _dev1Percent;\n        dev2Percent = _dev2Percent;\n        safuPercent = _safuPercent;\n        lastBlockDevWithdraw = _startBlock;\n    }\n\n    function updateMultiplier(uint256 multiplierNumber) public onlyOwner {\n        BONUS_MULTIPLIER = multiplierNumber;\n    }\n\n    function poolLength() external view returns (uint256) {\n        return poolInfo.length;\n    }\n\n    function bonusLength() external view returns (uint256) {\n        return bonusInfo.length;\n    }\n\n    function withdrawDevFee() public{\n        require(lastBlockDevWithdraw < block.number, 'wait for new block');\n        uint256 multiplier = getMultiplier(lastBlockDevWithdraw, block.number);\n        uint256 LCReward = multiplier.mul(LCPerBlock);\n        LC.mint(dev0addr, LCReward.mul(dev0Percent).div(percentDec));\n        LC.mint(dev1addr, LCReward.mul(dev1Percent).div(percentDec));\n        LC.mint(dev2addr, LCReward.mul(dev2Percent).div(percentDec));\n        LC.mint(safuaddr, LCReward.mul(safuPercent).div(percentDec));\n        lastBlockDevWithdraw = block.number;\n    }\n\n    // Add a new lp to the pool. Can only be called by the owner.\n    // XXX DO NOT add the same LP token more than once. Rewards will be messed up if you do.\n    function add(uint256 _allocPoint, uint256 _bonusPoint, IBEP20 _lpToken, bool _withUpdate) public onlyOwner {\n        _checkPoolDuplicate(_lpToken);\n        if (_withUpdate) {\n            massUpdatePools();\n        }\n\n        uint256 lastRewardBlock = block.number > startBlock ? block.number : startBlock;\n        totalAllocPoint = totalAllocPoint.add(_allocPoint);\n        totalBonusPoint = totalBonusPoint.add(_bonusPoint);\n        \n        poolInfo.push(\n            PoolInfo({\n                lpToken: _lpToken,\n                allocPoint: _allocPoint,\n                bonusPoint: _bonusPoint,\n                lastRewardBlock: lastRewardBlock,\n                accLCPerShare: 0\n            })\n        );\n    }\n\n    function addBonus(IBEP20 _bonusToken) public onlyOwner {\n        _checkBonusDuplicate(_bonusToken);\n        uint256 lastRewardBlock = block.number > startBlock ? block.number : startBlock;\n        bonusInfo.push(BonusInfo({bonusToken: _bonusToken, lastBalance: 0, lastRewardBlock: lastRewardBlock}));\n        for(uint256 i = 0; i < poolInfo.length; i ++){\n            PoolInfo storage pool = poolInfo[i];\n            if (pool.bonusPoint > 0){\n                poolBonusPerShare[i].push(0);\n            }\n        }\n    }\n\n    function _checkPoolDuplicate(IBEP20 _lpToken) view internal {\n        uint256 length = poolInfo.length;\n        for(uint256 pid = 0; pid < length; ++pid) {\n            require(poolInfo[pid].lpToken != _lpToken, \"pool existed\");\n        }\n    }\n\n    function _checkBonusDuplicate(IBEP20 _bonusToken) view internal {\n        uint256 length = bonusInfo.length;\n        for(uint256 pid = 0; pid < length; ++pid) {\n            require(bonusInfo[pid].bonusToken != _bonusToken, \"bonus existed\");\n        }\n    }\n\n    // Update the given pool's LC allocation point. Can only be called by the owner.\n    function set( uint256 _pid, uint256 _allocPoint) public onlyOwner validPool(_pid) {\n        massUpdatePools();\n        totalAllocPoint = totalAllocPoint.sub(poolInfo[_pid].allocPoint).add(_allocPoint);\n        poolInfo[_pid].allocPoint = _allocPoint;\n    }\n\n    // Return reward multiplier over the given _from to _to block.\n    function getMultiplier(uint256 _from, uint256 _to) public view returns (uint256) {\n         return _to.sub(_from).mul(BONUS_MULTIPLIER);\n    }\n\n    // View function to see pending LCs on frontend.\n    function pendingLC(uint256 _pid, address _user) external view validPool(_pid) returns (uint256){\n        PoolInfo storage pool = poolInfo[_pid];\n        UserInfo storage user = userInfo[_pid][_user];\n        uint256 accLCPerShare = pool.accLCPerShare;\n        uint256 lpSupply = pool.lpToken.balanceOf(address(this));\n        if (block.number > pool.lastRewardBlock && lpSupply != 0) {\n            uint256 multiplier = getMultiplier(pool.lastRewardBlock, block.number);\n            uint256 LCReward = multiplier.mul(LCPerBlock).mul(pool.allocPoint).div(totalAllocPoint).mul(stakingPercent).div(percentDec);\n            accLCPerShare = accLCPerShare.add(LCReward.mul(1e12).div(lpSupply));\n        }\n        return user.amount.mul(accLCPerShare).div(1e12).sub(user.rewardDebt);\n    }\n\n    // View function to see pending bonus on frontend.\n    function pendingBonus(uint256 _pid, address _user) external view validPool(_pid) returns (uint256[] memory){\n        PoolInfo storage pool = poolInfo[_pid];\n        UserInfo storage user = userInfo[_pid][_user];\n        uint256[] memory values = new uint256[](bonusInfo.length);\n        if (pool.bonusPoint > 0){\n            for(uint256 i = 0; i < bonusInfo.length; i ++) {\n                values[i] = user.amount.mul(poolBonusPerShare[_pid][i]).div(1e12).sub(userBonusDebt[i][_user]);\n            }\n        }\n        return values;\n    }\n\n    // Update reward vairables for all pools. Be careful of gas spending!\n    function massUpdatePools() public {\n        uint256 length = poolInfo.length;\n        for (uint256 pid = 0; pid < length; ++pid) {\n            updatePool(pid);\n        }\n    }\n\n    // Update reward variables of the given pool to be up-to-date.\n    function updatePool(uint256 _pid) public validPool(_pid) {\n        PoolInfo storage pool = poolInfo[_pid];\n        if (block.number <= pool.lastRewardBlock) {\n            return;\n        }\n        uint256 lpSupply = pool.lpToken.balanceOf(address(this));\n        if (lpSupply <= 0) {\n            pool.lastRewardBlock = block.number;\n            return;\n        }\n        uint256 multiplier = getMultiplier(pool.lastRewardBlock, block.number);\n        uint256 LCReward = multiplier.mul(LCPerBlock).mul(pool.allocPoint).div(totalAllocPoint).mul(stakingPercent).div(percentDec);\n        LC.mint(address(this), LCReward);\n        pool.accLCPerShare = pool.accLCPerShare.add(LCReward.mul(1e12).div(lpSupply));\n        pool.lastRewardBlock = block.number;\n    }\n\n    // Update bonus\n    function updateBonus(uint256 _bonusId) external override {\n\t\trequire(_bonusId < bonusInfo.length, \"bonusId must be less than bonusInfo length\");\n        BonusInfo storage bonusPool = bonusInfo[_bonusId];\n\t\tuint256 currentBalance = bonusPool.bonusToken.balanceOf(address(this));\n\t\tif(currentBalance > bonusPool.lastBalance){\n\t\t\tuint256 amount = currentBalance.sub(bonusPool.lastBalance);\n            for(uint256 i = 0; i < poolInfo.length; i ++){\n                PoolInfo storage pool = poolInfo[i];\n                uint256 lpSupply = pool.lpToken.balanceOf(address(this));\n                if(lpSupply <= 0){\n                    continue;\n                }\n                if (pool.bonusPoint > 0){\n                    poolBonusPerShare[i][_bonusId] = poolBonusPerShare[i][_bonusId].add(amount.mul(pool.bonusPoint).div(totalBonusPoint).mul(1e12).div(lpSupply));\n                }\n            }\n\t\t\tbonusPool.lastBalance = currentBalance;\n\t\t\tbonusPool.lastRewardBlock = block.number;\n\t\t}\n    }\n\n    // Pay pending LCs.\n    function payPendingLC(uint256 _pid, address _user) internal validPool(_pid) {\n        PoolInfo storage pool = poolInfo[_pid];\n        UserInfo storage user = userInfo[_pid][_user];\n        uint256 pending = user.amount.mul(pool.accLCPerShare).div(1e12).sub(user.rewardDebt);\n        if (pending > 0) {\n            // send rewards\n            safeLCTransfer(_user, pending);\n            payReferralCommission(_user, pending);\n        }\n    }\n\n    // Pay pending Bonus.\n    function payPendingBonus(uint256 _pid, address _user) internal validPool(_pid) {\n        PoolInfo storage pool = poolInfo[_pid];\n        UserInfo storage user = userInfo[_pid][_user];\n        if (pool.bonusPoint > 0){\n\t\t\trequire(poolBonusPerShare[_pid].length == bonusInfo.length, \"poolBonusPerShare.length must equal to bonusInof length\");\n            for(uint256 i = 0; i < bonusInfo.length; i ++) {  \n                uint256 pending = user.amount.mul(poolBonusPerShare[_pid][i]).div(1e12).sub(userBonusDebt[i][_user]);\n                if (pending > 0) {\n                    BonusInfo storage bonusPool = bonusInfo[i];\n\t\t\t\t\tbonusPool.lastBalance = bonusPool.lastBalance.sub(pending);\n                    bonusPool.bonusToken.safeTransfer(address(_user), pending);\n                }\n            }\n        }\n    }\n\n    // Deposit LP tokens to MasterChef for LC allocation.\n    function deposit(uint256 _pid, uint256 _amount, address _referrer) public nonReentrant validPool(_pid) {\n        PoolInfo storage pool = poolInfo[_pid];\n        UserInfo storage user = userInfo[_pid][msg.sender];\n        updatePool(_pid);\n        if(_amount > 0 && address(luckychipReferral) != address(0) && _referrer != address(0) && _referrer != msg.sender){\n            luckychipReferral.recordReferral(msg.sender, _referrer);\n        }\n        payPendingLC(_pid, msg.sender);\n        if (pool.bonusPoint > 0){\n            payPendingBonus(_pid, msg.sender);\n\t\t}\n        if(_amount > 0){\n            pool.lpToken.safeTransferFrom(address(msg.sender), address(this), _amount);\n            user.amount = user.amount.add(_amount);\n        }\n        user.rewardDebt = user.amount.mul(pool.accLCPerShare).div(1e12);\n        if (pool.bonusPoint > 0){\n            for(uint256 i = 0; i < bonusInfo.length; i ++) {  \n\t\t\t\tuserBonusDebt[i][msg.sender] = user.amount.mul(poolBonusPerShare[_pid][i]).div(1e12);\n            }\n        }\n\n        emit Deposit(msg.sender, _pid, _amount);\n    }\n\n    // Withdraw LP tokens from MasterChef.\n    function withdraw(uint256 _pid, uint256 _amount) public nonReentrant validPool(_pid) {\n\n        PoolInfo storage pool = poolInfo[_pid];\n        UserInfo storage user = userInfo[_pid][msg.sender];\n        require(user.amount >= _amount, \"withdraw: not good\");\n        updatePool(_pid);\n        payPendingLC(_pid, msg.sender);\n        if (pool.bonusPoint > 0){\n            payPendingBonus(_pid, msg.sender);\n\t\t}\n        if(_amount > 0){\n            user.amount = user.amount.sub(_amount);\n            pool.lpToken.safeTransfer(address(msg.sender), _amount);\n        } \n        user.rewardDebt = user.amount.mul(pool.accLCPerShare).div(1e12);\n        if (pool.bonusPoint > 0){\n            for(uint256 i = 0; i < bonusInfo.length; i ++) {  \n\t\t\t\tuserBonusDebt[i][msg.sender] = user.amount.mul(poolBonusPerShare[_pid][i]).div(1e12);\n            }\n        }\n        emit Withdraw(msg.sender, _pid, _amount);\n    }\n\n    // Withdraw without caring about rewards. EMERGENCY ONLY.\n    function emergencyWithdraw(uint256 _pid) public nonReentrant validPool(_pid) {\n        PoolInfo storage pool = poolInfo[_pid];\n        UserInfo storage user = userInfo[_pid][msg.sender];\n        pool.lpToken.safeTransfer(address(msg.sender), user.amount);\n        emit EmergencyWithdraw(msg.sender, _pid, user.amount);\n        user.amount = 0;\n        user.rewardDebt = 0;\n\t\tif(pool.bonusPoint > 0){\n\t\t\t\n\t\t}\n    }\n\n    // Safe LC transfer function, just in case if rounding error causes pool to not have enough LCs.\n    function safeLCTransfer(address _to, uint256 _amount) internal {\n        uint256 LCBal = LC.balanceOf(address(this));\n        if (_amount > LCBal) {\n            LC.transfer(_to, LCBal);\n        } else {\n            LC.transfer(_to, _amount);\n        }\n    }\n    \n    function setDevAddress(address _dev0addr,address _dev1addr,address _dev2addr) public onlyOwner {\n        dev0addr = _dev0addr;\n        dev1addr = _dev1addr;\n        dev2addr = _dev2addr;\n    }\n    function setSafuAddress(address _safuaddr) public onlyOwner{\n        safuaddr = _safuaddr;\n    }\n    function setTreasuryAddress(address _treasuryaddr) public onlyOwner{\n        treasuryaddr = _treasuryaddr;\n    }\n    function updateLcPerBlock(uint256 newAmount) public onlyOwner {\n        require(newAmount <= 100 * 1e18, 'Max per block 100 LC');\n        require(newAmount >= 1 * 1e15, 'Min per block 0.001 LC');\n        LCPerBlock = newAmount;\n    }\n    // Update referral commission rate by the owner\n    function setReferralCommissionRate(uint16 _referralCommissionRate) public onlyOwner {\n        require(_referralCommissionRate <= MAXIMUM_REFERRAL_COMMISSION_RATE, \"setReferralCommissionRate: invalid referral commission rate basis points\");\n        referralCommissionRate = _referralCommissionRate;\n    }\n\n    // Pay referral commission to the referrer who referred this user.\n    function payReferralCommission(address _user, uint256 _pending) internal {\n        if (referralCommissionRate > 0) {\n            if (address(luckychipReferral) != address(0)){\n                address referrer = luckychipReferral.getReferrer(_user);\n                uint256 commissionAmount = _pending.mul(referralCommissionRate).div(10000);\n\n                if (commissionAmount > 0) {\n                    if (referrer != address(0)){\n                        LC.mint(referrer, commissionAmount);\n                        luckychipReferral.recordReferralCommission(referrer, commissionAmount);\n                        emit ReferralCommissionPaid(_user, referrer, commissionAmount);\n                    }else{\n                        LC.mint(treasuryaddr, commissionAmount);\n                        luckychipReferral.recordReferralCommission(treasuryaddr, commissionAmount);\n                        emit ReferralCommissionPaid(_user, treasuryaddr, commissionAmount);\n                    }\n                }\n            }else{\n                uint256 commissionAmount = _pending.mul(referralCommissionRate).div(10000);\n                if (commissionAmount > 0){\n                    LC.mint(treasuryaddr, commissionAmount);\n                    emit ReferralCommissionPaid(_user, treasuryaddr, commissionAmount);\n                }\n            }\n        }\n    }\n}\n",
  "sourcePath": "/home/ubuntu/defi/luckychip/staking/contracts/MasterChef.sol",
  "compiler": {
    "name": "solc",
    "version": "0.6.12+commit.27d51765.Emscripten.clang"
  },
  "schemaVersion": "3.4.1",
  "updatedAt": "2021-09-03T09:25:22.617Z",
  "networkType": "ethereum",
  "devdoc": {
    "kind": "dev",
    "methods": {
      "owner()": {
        "details": "Returns the address of the current owner."
      },
      "renounceOwnership()": {
        "details": "Leaves the contract without owner. It will not be possible to call `onlyOwner` functions anymore. Can only be called by the current owner. NOTE: Renouncing ownership will leave the contract without an owner, thereby removing any functionality that is only available to the owner."
      },
      "transferOwnership(address)": {
        "details": "Transfers ownership of the contract to a new account (`newOwner`). Can only be called by the current owner."
      }
    },
    "version": 1
  },
  "userdoc": {
    "kind": "user",
    "methods": {},
    "version": 1
  }
}